:2000000000400020DD13010001C9011001C9011001C9011001C9011001C9011001C901106D
:1C00200001C9011001C9011001C9011001C9011001C9011001C901103FC9011089
:20003C0080B54FF4FC720FF278011A480CF0BAFC012119484174002202210270C17601BD4C
:20005C002DE9F0410FF2502214493820136854689568D6681769D2F814C0D2F818E0D2F8F9
:20007C001C800B604C608D60CE600F61C1F814C0C1F818E0C1F81C8020322031401EE5D1DC
:20009C0050689368D46812680A6048608B60CC60BDE8F081480400215903002100C00021D1
:2000BC00410500217D0500212D06002170B51D46004C204787B2000010B5014800470000FD
:2000DC00D509000070B5614C6148254650358047022809D14034E1885E4A914204D1E97C5E
:2000FC00890601D4911DE18070BD70B557495A4A084650300378002B10D08379012B0DD181
:20011C00037C5B09DB0709D0097D544DC1746C7F20202043687790476C7770BDFF21C17420
:20013C00904770BD10B54E48484C804702280ED121464031CA88474B9A4208D1CA7C5209CE
:20015C00D20704D0227D920601D49A1DCA8010BD70B53E4843494030C07C4009C00707D032
:20017C003E4D41482C8B2043288388472C8370BD884770BD10B53B48344CAC388047214609
:20019C0053310A789309DB0705D04034A2730A7803231A430A7010BD2C4940310871182876
:2001BC0012D004DC0A280BD00B2804D10AE025280CD02A280CD02D4980004018C0687047DE
:2001DC002B4870472B4870472B4870472B4870472B48704770B504461C484E252D5CAE09AB
:2001FC00F60716D0067D3007000F052803D00120054202D00DE00220FAE7E80905D07006D1
:20021C0003D54868800F012803D05B085B0052085200062B03D01020022B11D011E0FB20F7
:20023C00024002232046FFF741FF002807DAC100611A2039497E1422114200D1002070BD93
:20025C00024303432046FFF731FF70BD4401002137CB000004140000EBC80000A800002142
:20027C00F5B4000053AD00002020000080DF00001D050021F9040021CD040021930400210F
:20029C006D04002110B5034CFFF716FF20680028FAD110BD0011044068610000F825F965B0
:2002BC00F9754500450045002600260057A3520052004C00401F401F401F3F000000000053
:2002DC00304000400140034007400F404F40CF40CF41CF43CF47CF4FCF3FCF2FCF1FCF0F6C
:2002FC00000000000000000000000F00080000003F00000040003F000000040068000E0093
:20031C00DC00060043001A00050000000000020000000000000000000400C00000000400B3
:20033C00C000000007000000000000000000000000000000000000003040004001400340A6
:20035C0007400F404F40CF40CF7FCF6FCF5FCF4FCF3FCF2FCF1FCF0F00000000000000009D
:20037C0050C00091007070C00091007082312100319110B10070018101B100A1823132910D
:20039C0010B101911110418141227740F106007051C0019130181039833108D01831416FD1
:2003BC003100319110B18314141683680070251050C00091F4C340C12014036F3110410497
:2003DC005082F0229840512622C082312100319110B163393110410482C08231210031919B
:2003FC0010B163393110A2C082312100319110B150101531051405920070676452C03110A6
:20041C0031066131C1026A6412C13110213971065131E1026A64007051C0019101CCE2C0CC
:20043C006A64676411C1C2C06A6450B054B0007140804022D6440022C94060B08180111EC9
:20045C00C944007054A064B0F0800022C9404012B09032B070C1DF6811C122C16A6470C1C0
:20047C00E46851C00191E2C0823160820200329110B130C2EE68538253395339B16460C347
:20049C00F4688012B09032B00070676401C122C16A6401C1C2C06A645382B164C012B09074
:2004BC0032B00070676472C281C06A6422C111C16A6402C011C16A6462C031C36A6462C3D2
:2004DC0011C16A6402C311C16A6453825339B164E2C36F6411221C4142C281C86A6452C24E
:2004FC0011C16A6472C2E1CE6A6402C281C86A6402C201C86A64B0C030690070676442C211
:20051C0001C86A6452C211C06A6472C2E1C06A6402C001C16A6462C001C36A6422C101C127
:20053C006A6462C301C16A6402C301C16A645382B16400708180111E5C4150B054B000712B
:20055C00408040225D4154A064B0F1800122514500700022514160B04E61000000000000AA
:20057C000000000000000000067305720B720E7250B00071818060B050A09280F0EFF1928C
:20059C0002936A6741228C458080F1C11004301601110114016CB561B661B761B861B9618D
:2005BC00BA61BB61BD61BF61C161C36126632D63F0C002043231412A121432160111211412
:2005DC00016CDA61C561E061C761CB61B561B561B561F461C561FA61C761CB61B561B56104
:2005FC00B561F461C561FA61C761CB61B561B561B561E761C561ED61C761CB61B561B56121
:20061C00B561CF61CF61CF61CF61CF61CF61C064CF61F964CF610665CF613265CF6174676A
:20063C00CF611166CF61C0644E65F964CF61066511663265CF618280E0DFF2926A67B0B044
:20065C00D661B1B00673057230B06C61D0CF6A6784C203C0C0C37C64207851788278E378B7
:20067C001579B6780062C0CF6A6784C203C0C0C37C64307861789278F3781579C678006250
:20069C00B0CF6A6784C203C0C0C37C6440787178A27803791579D678109221923292439281
:2006BC005492659256911FC0FF914039F00601101031101400927067CF61E3B054A0F08076
:2006DC0050221A4640800022BE461262E3A000C86091598150B0918041228E46A0CF6A6734
:2006FC0012828231823942398B641282F2062F101F312F141682D622334640C1346200C5AF
:20071C0020140D6F6D39DE10F4C34E0482C082312E006D39A2C082312D001A828A39FA0606
:20073C002082803180390BC00B18BC10AC18038239149B141082F0060110103110145181C2
:20075C0010140C14C622C94631D0C1266462021011C0013010C00118021882312100C126C2
:20077C00919103B013B063B053B041800122BE46B481C491D581B51C774E95186591F0803E
:20079C00102269428C623D9110B13E9110B1E08000228146E6228142E0B0951865910F926B
:2007BC005981F914F0805022114210228C464D6390CF6A6763B052A03082F2C0200402107E
:2007DC0011C0013010C00118021882312100C1269191919113B003B063B053B064B054B055
:2007FC00007141800122BE4663B064B0F08050221142B181C191D1819118619131B0A462D0
:20081C002967E0A059810582591480C0007163B0BA6A6962E3A0018262818231823D80EF61
:20083C00F19202936A6703A0007037824739873930828039F006021011C0013010C0011849
:20085C00021882312100C126819102B012B030824039F006021011C0013010C001180218E9
:20087C0082312100C126919103B013B063B053B0007153A062B052B041800122BE46A4816E
:20089C00C491D581B51CFE4E95186591F0801022F0428C62B481C491D4814518751C084FEB
:2008BC00F0801022F0428C623D9110B13E9110B1E08000221247E6221243E0B065910F92DC
:2008DC005981F914F0805022114210228C4630632967E0A0598105825914F0C0007162B038
:2008FC00226BF062A2808B64CF6112824239F2068B6050B00071CF6170CF6A674082418096
:20091C000122BE46A481C491D58195186591F18011228C46336B41800122BE46A481C491AB
:20093C00D581C51C1C4B95186591F08010223F438C6260CF6A67408241800122BE46B48169
:20095C00C491D58195186591F18011228C46506B41800122BE46B481C491D581C51CB44A55
:20097C0095186591F08010225C438C62E092D08200226B47C0B20070A080F022874330B033
:20099C0002C1623101C0A080001E8043F022814380F86031603981632010101A136F236E5A
:2009BC0011161216826B00702DE9F84FDFF81885DFF8181588F80000002008600921DFF891
:2009DC00100501700D2141804FF408718180DFF80405DFF8041501608A7EDFF80005027042
:2009FC00FF2ACB7E437008BFFF2B0D7F85704E7FC6708F7F0771C97F417115D1FF2D08BFE8
:200A1C00FF2E11D1FF2F08BFFF290DD1DFF8D0140A7802704A7842708A788270CA78C27025
:200A3C000A79027149794171DFF8B81402780A70FF2542784A7082788A70C278CA7002791E
:200A5C000A714079DFF8A02448710021DFF89C04057045708570C570057145711180DFF872
:200A7C009004DFF89014466BDFF88C247078087031781170B078DFF884140870716908791F
:200A9C00DFF87C14421E0A70F078DFF878140870B069DFF87414086008B913F0B7F8F0690A
:200ABC00DFF86844206008B913F0B0F82068DFF8607401688847216851F8042F38469047E6
:200ADC00DFF85004DFF850143862DFF850047862306A086008B913F099F8706ADFF8401499
:200AFC00086008B913F092F8DFF838B4DFF838649BF8040013F0E4FB306008B900F045B936
:200B1C009BF80500DFF8247413F0DAFB386008B9306837E19BF80600DFF8144413F0D0FB3B
:200B3C00206020B9306813F0D3FB38682AE19BF80700DFF8009413F0C3FBC9F8000038B9B4
:200B5C00306813F0C5FB386813F0C2FB206819E1DFF8A4130A789BF80000DFF8DCA3921C95
:200B7C00504380B213F0ACFBCAF8080058B9306813F0AEFB386813F0ABFB206813F0A8FB54
:200B9C00D9F80000FEE0DC480078002800F00281BBF80210DFF8A4B3484380B213F090FB15
:200BBC00CBF8040078B9306813F092FB386813F08FFB206813F08CFBD9F8000013F088FB63
:200BDC00DAF80800DEE0CC48007813F079FBDC49086080B9306813F07BFB386813F078FB71
:200BFC00D9F8000013F074FBDAF8080013F070FBDBF80400C6E0C04800781C21484313F086
:200C1C005FFBD04A1060B0B9306813F061FB386813F05EFB206813F05BFBD9F8000013F0C3
:200C3C0057FBDAF8080013F053FBDBF8040013F04FFBC348A5E0B0480078400113F040FB78
:200C5C00C1490860D8B9306813F042FB386813F03FFB206813F03CFBD9F8000013F038FBF7
:200C7C00DAF8080013F034FBDBF8040013F030FBB348006813F02CFBB249086882E09E4807
:200C9C000078000113F01CFBB0490860F0B9306813F01EFB386813F01BFB206813F018FB90
:200CBC00D9F8000013F014FBDAF8080013F010FBDBF8040013F00CFBA148006813F008FB15
:200CDC00A049086813F004FB9F485AE08A480078000113F0F5FA9E49086018BB306813F082
:200CFC00F7FA386813F0F4FA206813F0F1FAD9F8000013F0EDFADAF8080013F0E9FADBF892
:200D1C00040013F0E5FA8E48006813F0E1FA8D49086813F0DDFA8C48006813F0D9FA8B49AF
:200D3C0008682FE0744800783021484313F0C8FA884A106070BB306813F0CAFA386813F0D4
:200D5C00C7FA206813F0C4FAD9F8000013F0C0FADAF8080013F0BCFADBF8040013F0B8FAC0
:200D7C007748006813F0B4FA7649086813F0B0FA7548006813F0ACFA7449086813F0A8FA03
:200D9C007348006813F0A4FA002012F03FFF4FF4804192E0316801200871306805733168C1
:200DBC004D73306885733168CD7330680574002031684D743268D072A0223168487103214F
:200DDC003068C28001720720316848720020326890722821306841820121C17600203168BE
:200DFC004877326882F85E00012031680877326882F85D00396808713868057339684D7369
:200E1C00386885733968CD7338680574002039684D743A68D072396848713A6890724FF47D
:200E3C00207039680022C88008818A7401213A68D17421680D732268557321688D732268FD
:200E5C00D57321680D740021226855742368D9720121226811710021236859712168C88065
:200E7C000881002088722168887405202268D0743948016888472A490A6805461068804713
:200E9C0027490A6852F8043F0020984718481D4BC16818780A88314902430A802846304985
:200EBC000A6890470C212F4800F05EF80F4800F05FF800F061F84FF4005198F80000BDE833
:200EDC00F44F0AF0FFBC00BF6E4F0020044F0020604E0020084F0020B63F00502C4E0020CB
:200EFC00E81200503C4E00200C4F0020344E0020785C01006D4F00207B4F00206B4F002050
:200F1C00724F00206C4F0020F04E0020F44E00207C4B0020DD420100F84E0020ED4201009C
:200F3C00FC4E0020B41E0020104F002078280020184F00207C2800204C280020684E002045
:200F5C00004F00207028002074280020884E00208C4E0020904E002038190020544F002070
:200F7C003C190020F84D0020DFF800F0E5710110DFF800F01D6E0110DFF800F04D71011054
:200F9C00B0B5174C241D20680004070C23D01248006800688047114991F90720824205DDF8
:200FBC0010F1800FB8BF6FF07F00C8718D88BD4210D80A68D4F8D40F801A801C1F2888BF16
:200FDC001F207F1B4008C7404FF6FF70EF19B84238BF071C8F80B0BDEC01001060280020DC
:040FFC003010094068
:20100000B41200001810000015AB0110FDB301106DC00110FDAE011099B5011000000000F7
:08102000000000002D0000009B
:20102800B01200003C100000B1C00110A9BF011067C0011069B80110000000000000000035
:041048003000000074
:20104C00B012000060100000BDC00110CDB30110D9BD01106DB3011000000000000000005B
:04106C00310000004F
:2010700000000000DC1E002004000000000000000000000020000000E8C901103000000030
:2010900028100000E41E00200400000000000000000000000C000000D8CA0110180000000B
:2010B0004C100000EC1E002004000000000000000000000024000000F0CA0110180000008F
:2010D00000000000F41E00200400000000000000000000001000000018CA01102C0000009B
:2010F00000100000041F0020040000000000000000000000200000006CCA011024000000FE
:20111000FFFFFFFF0C1F00200400000000000000000000002800000090CA011024000000BD
:20113000FFFFFFFF141F00200400000000000000000000001400000008CB0110180000003C
:20115000FFFFFFFF1C1F002004000000000000000000000058000000B4C90110340000000A
:20117000FFFFFFFF241F00200400000000000000000000001000000020CB011018000000D8
:20119000FFFFFFFF2C1F00200400000000000000000000001C000000B4CA01102400000005
:2011B000FFFFFFFF341F00200400000000000000000000003800000044CA0110280000002D
:2011D000FFFFFFFF3C1F00200400000000000000000000005400000078C901103C000000A2
:0811F00001000000545C010045
:0411F80001000000F2
:0411FC0000000E00E1
:0412000000000F00DB
:0412040032000000B4
:0412080001000000E1
:04120C00701D002031
:0412100000020000D8
:0412140000000000D6
:0412180001C90110F7
:04121C0000000000CE
:0412200000000000CA
:0412240008000000BE
:0412280000002200A0
:04122C00F41B00208F
:0412300000000000BA
:0412340000000000B6
:0412380008000000AA
:04123C00301D002041
:0412400000000000AA
:0412440000000000A6
:04124800080000009A
:04124C00000000009E
:04125000000000009A
:041254000000000096
:041258000000000092
:04125C00010000008D
:041260005C1C0020F2
:041264000600000080
:041268000100000081
:04126C00D81A00206C
:04127000000000007A
:041274000000000076
:041278000002000070
:04127C00000000006E
:02128000290043
:02128200010069
:02128400250043
:02128600300036
:02128800310033
:02128A002D0035
:02128C0001005F
:01128E00015E
:0812900003000000E85B01000F
:0812980000000000000000004E
:0412A0000000010049
:0412A4000000030043
:0412A80013C401105A
:0412AC003D400100C0
:0412B000B812000070
:0412B400B81200006C
:0412B8000000000032
:0412BC00741E00207C
:0412C000DB4101000D
:0412C4002000000006
:0412C800605B010066
:0412CC00D4590100F0
:0412D00029C101101F
:0412D4000F130100F3
:0412D8008B1701006F
:0412DC00A1C7011095
:0412E000A3C701108F
:0412E4000000000006
:0412E800875B01001F
:0412EC005058010055
:0412F0006858010039
:0412F4003858010065
:0212F8000200F2
:0212FA000900E9
:0212FC000100EF
:0212FE000000EE
:0113000001EB
:04130400454101005E
:041308008924010033
:04130C00AD350100FA
:0413100005280100AB
:041314006B28010041
:04131800811201003D
:04131C00B9E900002B
:04132000C3430100C2
:04132400D9FE0000EE
:0413280015C70110D4
:04132C0025C70110C0
:201330002DE9F04FD44C04F10C012046ADF15C0D0FF0B0FA04F1340013F02DF804F1800545
:201350004FF47A720123CD49206128460FF000FF284613F078F9002001460EF045FCC84E89
:201370001F220623A0603146102007F06FF8502700200125ADF81C704FF44873ADF81A0043
:2013900080468DF84D500DF14D02ADF81E3029468DF84E804FF47A77ADF8208040F2053073
:2013B000ADF8227003F0A2FB40F2063002210DF11A0203F09BFB04F161024FF442701E219C
:2013D00003F094FB04F1240240F20730072103F08DFB4FF444700DF14E02294603F086FB2C
:2013F00040F21130022107AA03F080FB40F2123002210DF11E0203F079FB40F21330022174
:2014100008AA03F073FB4FF4457002210DF1220203F06CFB04F14C0042461523CC4900906C
:20143000102007F013F8314610200622A02307F00DF8314610200722A02307F007F83146DC
:2014500010200822A02307F001F8314610200922A02306F0FBFFCDF81480A9468DF851804C
:2014700005A88DF84F90C74D8DF850904FF481628DF85290042300902946102006F0E6FF14
:201490000DF14F004FF4806200904B462946102006F0DCFF14A840F2024200904B46294677
:2014B000102006F0D3FF0DF1510040F2034200904B462946102006F0C9FF0DF1520040F25E
:2014D000064200904B462946102006F0BFFFC34910204FF0FF3206F0B9FFC14910204FF06D
:2014F000FF3206F0B3FFCC4ECC4F10201323CC4A00903146019706F0A9FFCD480078800008
:2015100013F089F8CB4D0146A96069B14FF6FF7010F0EAFFC849102005F114020090112307
:201530000191314606F092FF02208DF8539003268DF854004FF0040A8DF85560BF4F8DF865
:2015500056A00FAB3968387919600DF153021871494640460AF05CF9484615AA01460AF032
:2015700057F9022049460DF155020AF051F949460DF1560230460AF04BF905210FAA5046B3
:201590000AF046F904F1200004F12C02C1496860102006F05BFF207811F0FAFBBE4902469B
:2015B000102006F053FF207811F0F2FBBB490246102006F04BFFBB48B9490860BA491020C1
:2015D00006F044FFB9491020524606F03FFFCB4DC6A04FF6FF712860404611F0A9FAA768D0
:2015F000DFF81CA357B12E7946B150468760052101704146C160284610F022FF04F140001F
:2016100012F0C9FEBF4E606106F10C0106F118000BF068FABC49B06012F002FFBB4DB0687B
:201630004FF4E0212A46521E10F0ACFFB0684FF4E0212A4610F0A6FFB54FB0684FF0C051EE
:201650003A46521E10F09EFFB0684FF0C0513A4610F098FFC849C822434606F124000FF0D0
:2016700077FDC648C6497060102006F0EFFEC94E30787778E7B905E0880600204D42010075
:20169000BD84011004F11C01316211F081FB06F15407CDF80080024606F14400019006F124
:2016B0001C050297BC490395B378102006F0CEFE6249491D0A6809A802600F8907814A683E
:2016D00042600A2109A80DF00DFD5546C246E068C64A51464FF0FF3313F02AFB071CF6D061
:2016F000CDF810A006A813A904AA11F09DF8002840F0EF80BDF818102078C846102940F004
:20171000E1809DF84C10884240F0DC80049E31884FF6FF728A4200F093803378913B33D0B7
:201730001F3B40F0CF807178162913D03279A06829787E2A08D07F2A1DD13289C5A3009295
:20175000524611F0B1FC16E0327AC6A3F7E7C04629DA000011F01CFBCDF80090BC497288D5
:201770000346102006F072FE28B940460CF0C0FFD046A661A6E0317906F1080013F0D4FA3B
:20179000A0E0C0466148000070780E382AD0801E48D02E3840F09680B0780C2840F09280E2
:2017B000F378A1682878ABB9401CC2B2B1A308461146524611F078FCF079012814BFB2A014
:2017D000B3A00090A1682878B3A3801CC2B20846114674E0401CB4A3F8E7C046D53401006C
:2017F0005D380100B08842F2030181426AD1B1680E78002E66D1491C11A80A68496802602E
:2018100011AE41603078B94911AA00F0FD003070102006F01BFE55E0152D0100C45B01008F
:20183000741200200820514605F06AFF4AE0C046694F002024150020D05B0100AC5A010041
:20185000708840083ED3A669002E3BD0A07806F10803401CA070A449009372883379102003
:2018700006F0F4FD5FFA80FBBBF1160F20D02078BBF1040F1CD0A66911F08AFACDF800A0A0
:20189000734972880346102006F0E0FD58460CF02FFF17E0313A010051880110318101105E
:2018B0001C02002063D1000085D20000113E0100A07800902978A06880A3491CC9B2524613
:2018D00011F0F2FB049820B1B8F1000F01D012F06BFEF80806D3606913F022FA10B9606956
:2018F00013F01AFAF80FC0F09E8096E0424C45205065726970686572616C00C00C1D00206E
:20191000E01D0020241B0020F11F01000E0005800E0000102069064613F0FAF9864208BF1F
:20193000564602D0866810F0F9FD301CB04674D00188491E6BD0491E49D0891E6AD180783A
:2019500001092BD2400965D30E2012F08FFB002860D16868697803790A46934218D0FF2A79
:2019700058D000EBC203DE6866B900EBC100006910F066FD4EE0C046694001006F4501000F
:20199000C5AB001000EBC20003690846984741E08068EDE7000A0020831601000D2012F0A1
:2019B00065FB002836D1696868780979814207D0FF2809D0401CC0B210F002FFFF2802D1F2
:2019D000504610F0FDFE687008F094FD22E083782E78D4F808B0761C53B19B1E1AD1022082
:2019F0000DF1570110F05AF939A307E0010000C050460DF1570110F051F938A39DF85700AD
:201A1000F1B252460090584611F04EFB02E0807804F0C6F8404610F081FD206913F080F96E
:201A300000283FF477AF7808FFF451AE304812F00AFE30490CA80F310A680F8902604A6896
:201A500007810A2142600CA80DF04CFB3FE6C046C94101004D54552053697A653A2025645F
:201A700000C046C046432056696F6C617465643A20256400504859205570646174652043F5
:201A90006F6D706C6574650032204D62707300C031204D62707300C043757272656E7420F6
:201AB0005048593A20257300504859204368616E6765206661696C75726500C052737020BF
:201AD00073656E642072657472793A20256400C04368617220333A20256400C04368617261
:201AF00020313A20256400C0DDFE001095B4001008070020AC5A01002DE9F04F0C4685B08C
:201B1000834614F8010BDFF870278DF8000018280BF1FD010BF1E7080BF166090BF20D1A2D
:201B30000BF5B0760BF59C750BF5C67700F29183DFE810F019006F005F0191008F038F03B7
:201B5000FA00690311012301FE000D0133018F038F037C018F03610155017503D602D60286
:201B700027028F03740214F8010B8BF88600022221460BF1880013F0C7F8014602220BF1CB
:201B90008A0013F0C1F8014602220BF18C0013F0BBF8014602220BF18E0013F0B5F8044657
:201BB0009BF8860040008BF886000BF1860102224888400048800BF186008188490081805F
:201BD0000BF1860108890001088121460BF1840013F09AF8B9F81E10BBF80800091A89B2E3
:201BF00047F6FF7291422ADA0BF18601C8888A88401C520050430A89904203D33B208AF812
:201C10000B0039E2012089F81C000020ABF81E001EE0052221460BF1610013F075F801464F
:201C300002220BF1920013F06FF80BF1860047F6FF728189BBF80800091A89B2914280F2E0
:201C500018820BF18600012181720021ABF81E10012028700CE398F81600C1070AD41A2122
:201C700098F80D0088F80E10012808BF0D213FD00D21CDE1002089F8000089F806000822BE
:201C9000012088F8110021460BF1B00013F03CF8014602220BF1B80013F036F80BF1A8063E
:201CB00001460822304613F02FF804460821304613F026F80BF19C0604222146304613F055
:201CD00023F80421304613F01BF80BF1A00013F013F80BF1980013F00BF8DFF8A0050188DF
:201CF00041F08001018098F80D00012806D10421584605B0BDE8F04F10F052BA99F81000FB
:201D1000012804BF99F811100F290BD158460EF041FA042158460DF01DFB0F2089F81A0088
:201D3000FD2175E1042173E1012088F80F009FE2002089F8000089F8060088F800000B21A1
:201D5000012088F80D00002088F8010060E1012088F810008CE2002002F10906235C365C91
:201D700033432354561C365C33400B54401C0828F2DB58460DF088FD70E2002002F10905A4
:201D9000235C2D5C2B432354551C2D5C2B400B54401C0828F2DB022048E299F8060008B985
:201DB0003D2167E19AF800000128D3D014F8011B8AF80310022221460BF5897012F0A4FF29
:201DD000014602220BF58A7012F09EFF01208AF800009AF8020000281BD10C2118E198F8EE
:201DF0001600C10601D41221D1E058460EF092FE34E221783EE1207830706078707099F8C2
:201E1000100001280CD199F811100F2902D0162902D02DE268732BE2387B40F0010016E2FC
:201E300005B0BDE8F04F002011F0F6BE98F81600810707D410F0110F08BF0F2000F009828A
:201E50001A2252E02078617800EB01202882E178A07800EB012068826179207900EB0120F7
:201E7000A882E179A07900EB0120E882207A2876A17A607A00EB01206883217BE07A00EB3A
:201E90000120A883A17B607B00EB0120E883217CE07B00EB01202884A17C607C00EB0120C3
:201EB0006884217DE07C00EB0120A884A17D607D00EB0120E8840BF5AA700490688B03904D
:201ED000287E0290BBF808000190E88A0090AB8A6A8A298A58460CF0B9FC68B198F8160082
:201EF000410701D40F2152E01E22584605B0BDE8F04F0F2110F070B9688A0BF18601888006
:201F1000A88AC880E88A088102208BF8860000204880BBF83400C01DA9F81E008888BBF8E3
:201F30003210884201BF0BF18600C188BBF83400814206D10BF186000189BBF836008142C1
:201F50001DD099F81000012804BF99F811100F2907D099F8150020B10F2189F81A10FE21C5
:201F700056E0FC2158460DF0F5F9E88A0090AB8A6A8A298A9BF8060012F0B6FE78E11021BE
:201F900046E098F8170010F0090F03D116218AF80C1060E16078217800F007000140217028
:201FB0002078797B0140F97211D0481E01420CD0490704D5B87B10B10421F97205E0F97A6E
:201FD000022001421AD14008FBD1F87A08B9B97AF972F87A042803D158460EF03AFEB08343
:201FF000F87A12F07DFE3871B28BB97B01230FF053FA0146308B884202D207E0F872E4E79C
:20201000B28BB97B387901230FF046FA78801721584605B0BDE8F04F0DF09CB96078217801
:20203000814207D100F007000840207033D0421E10420FD01E221821584610F0CDF89BF823
:202050000610002300221E200AF024FB387B40F04000FCE0F87247F6FF72A078E17800EB4B
:20207000012038813989BBF80800091A89B2914206DB28218AF80B1001208AF80A00F7E07D
:202090000120B871F87A042803D158460EF0E1FDB083F87A0BE099F81100162806D1BA7A7F
:2020B0009BF80610134600200AF0F4FAB87A3871B28BB97B387901230FF0EEF90146308BFD
:2020D000884205D3B28BB97B387901230FF0E4F978800121387B40F0400038732970C7E004
:2020F0002078617800EB01207082E178A07800EB0120F0826179207900EB01203082E179E7
:20211000A07900EB0120B082B18AF089884288BF0846B97A042905D140F691229042B8BFDD
:202130004FF42960F28BF0839042B87A14BF01240024042803D158460EF08BFD04E0B08972
:20215000F18A884288BF0846B28BB083904214BF012100210C433089718A328B884288BF6C
:202170000846904214BF012100210C433083B28BB97B387901230FF08FF90146308B88427E
:2021900005D3B28BB97B387901230FF085F978807189308A728B814288BF014671839142D3
:2021B0009BF8063014BF0120002004438A4234490A6802EB4311728B8041121DC00F0A76B3
:2021D00010B1584610F046FA9DF80000142810D144B1F08B0090738BB28B318B9BF806000E
:2021F00012F07AFD584605B0BDE8F04F15210BF023BD1CB1387840F008003870397841F0CF
:202210002001397034E020780E280ED00F2809D0122804D014280CD0162812D028E00020A6
:20223000287225E00120287322E0032088F815001EE0387840F00200387040F01000387009
:2022500016E0387B40F00200387340F0100038730EE08AF80C0058460EF0D0F840B905B06F
:20227000BDE8F04F074800784FF4804109F030BB05B0BDE8F08F00BF08280020524F002012
:20229000742800206E4F00202DE9F04FD04C04F118012046ADF1440D0EF0FCFAD54D002685
:2022B0004FF6FF700123667032462082294604F1A4000EF04DFF0223324604F1C80029462B
:2022D0000EF046FF0423324604F1EC0029460EF03FFF4FF0040A04F14408102240463146C3
:2022F00084F802A00CF067F804F154091022484631460CF060F804F11C073E6004F10A05BE
:202310002E70E671267207206072CDF80080DFF81883022210200346414606F097F8102097
:2023300003224146CDF80090034606F08FF81020524641460097134606F088F84FF0080BBF
:202350004FF0030905F12A000C9005F179000D9005F11E000E9005F15A000F9024351095BB
:2023700017E06078A28FE18FB4F84050B4F8423006280ED1ADF81A20ADF81C10ADF81E50B3
:20239000C048ADF8203012F060F9012006A90BF087FBA069BA4A31464FF0FF3312F0C8FCCD
:2023B000071CF6D002960DF122000DF12E0102AA10F03AFA002840F0CB81BDF8221020783C
:2023D000102940F0C1819DF82E10884240F0BC81029D29884FF6FF728A4200F0AA812B78A8
:2023F000A23B00F08D812E3B40F0AE81A978B046002900F04981891E00F01881491E01296F
:2024100040F2E880891E00F0A880491E7BD0491E5CD0083900F06481891E40F0678194F8AD
:202430003A30A888052BADF80C0047D001208DF81600944812F009F994F83A0001281ED081
:2024500004281CD003280DD002280BD00298C188ADF80E100189ADF810104189ADF81210C1
:20247000818927E0A08FE58FADF80E00B4F84030ADF81050B4F84210ADF812301AE0A08FB6
:20249000E9888842D8BF081CADF80E002989E08F8842D8BF081CADF810006989B4F840004A
:2024B0008842D8BF081CADF81200A989B4F84200884200DC0846ADF8140001E08DF8166027
:2024D000AF49102003AA05F0C1FF0FE1AD4812F0BCF86B78002B40F00981E88860822889FC
:2024F000A0826889E082674811F0B8FE002840F0FD80656A002D00F0F9802B68608AA18A0F
:20251000E28A9847F2E0AA88B549102005F09EFF0C98414606220BF04EFF6682A682E68289
:20253000A8792073574812F090F8964812F08DF84FF001084FF6FF702379208253B9A879E2
:20255000082812BF84F801A005206070404611F0B5FECBE084F80190C8E06B787BBB291D5F
:202570000C980A680260898881800623637068892082E8896082288AA082688AE082E87857
:20259000E07294F83A00012818BF02280BD19A4910201F2205F05AFF4FF47A7180B2414387
:2025B00038480FF071FD688900909249CDF804A0EA7810202D1D2B4605F048FF99E0687877
:2025D000312840F08A80E67084F801A091E0C046000A00206B78002B7FD1A878E389617881
:2025F000032815D0E078257933B9012814BF2671E67008E0CD420100054304D07F481946B6
:202610000FF042FD61780729DED10620607070E0062907D0E578002D08BF84F8019068D0D2
:202630000220F3E70720F1E7133A01006B78002B53D1EB78617893B902291DD007291BD054
:20265000062902D12079012816D1032914D06B4811F004FE80B9012011F030FE0CE010F084
:2026700097FB0246A079624900900D9843460190102005F0EBFE68706D78002D2DD135E052
:2026900007000080C80A00206B7833BB5C485749009002221020034605F0D8FE59484A4673
:2026B000524900901020034605F0D0FEED1C0E9829680160A988012381802078637010F041
:2026D00067FB024601230F9D6079494900901020019505F0BBFEC0B258B184F801B008E071
:2026F000AA8841491020052305F0B0FEB8F1010F2AD1256A45B32D6835B36078A84723E091
:202710006879132820D12889012808D1607B022805D11C4811F099FF10F0D2F814E03649D4
:202730001020052205F092FE81B216480FF0ACFC0AE06888C00B07D3334852462B490090DF
:202750001346102005F082FE029808B111F02CFF2579E078790830D355EA00032DD02046CD
:2027700000788DB9E179257A8DF82410109A8DF8255013680DF126052B609288AA8005E0DD
:2027900005160110EC0A00208DF82490617A8DF82C10A17A8DF82D1010F0FAFA114902469F
:2027B00009AB102005F052FE38B1256A84F801B01DB12D680DB15846A847B80803D313499B
:2027D00030460BF06DF9F808FFF4E3AD607B401E3FF4C7AD401E7FF4DCAD10F071F8D8E52F
:2027F0006504010059440110C1170110F9A600000945011009A30000F5840110A40A0020C6
:20281000440A0020540A00201C0A00203A0A00202DE9F84F01200FF06BFF01280ED1DFF84C
:20283000F87439680020487138680EF057FE04F0EFFA040003D1812012F04AFA68E20120A8
:202850006071DFF8D854DFF8D8044178491C41703968A07981F8A00040200BF035FC206033
:20287000287901281CBF002011F0D6F9E8682168DFF8B05400F5B060C860286801680A7956
:20289000032A1CBF002011F0C7F92868DFF898840168DFF898B401F10809062299F8000074
:2028B000C0F3801084F82E0109F1020104F5947011F0EEFA042209F10E0104F1240011F0EE
:2028D000E7FAD8F80000A67900F10C03042209F10E0103EB461011F0DBFAD8F80000A379E3
:2028F00000EB4310032209F11201103011F0D0FA04F12C0699F81500B070022209F116012B
:2029100004F1300011F0C4FA022209F1180104F1320011F0BDFA022209F11A0104F134004B
:2029300011F0B6FA30896084022209F11C0104F1360011F0ADFAB078F18872894000B0702F
:202950004900B08840001201B080F180728189B2638C5B1C4800434392B2934200D231B9BB
:202970009BF80000802108F0B3FF3B21FEE004F12E01204610F03AFF0520A081204611F0BF
:20299000F7F8052209F11E0104F1610011F080FA99F823004009307012F096F960823A6875
:2029B000E34F518A401A04F59771888104F1610199F82300DFF87C9300F01F00F0732046CD
:2029D0000EF0BAFE29680A68002010711C25A1793868694341F6210242520022A179694310
:2029F0000144001D4A80A1796943425099F80200410609D5D049088841F20A4290420CBFC6
:202A1000CE48CF48C4F89C012046D4F89C1188473968A37901F10E026B43D054A179386827
:202A3000694308440021C173C648017881B1B08870B9002171730120208160812046D4F845
:202A50009C1188473968A37901F10E026B43D0543868A27900F10E016A43885C707394F89E
:202A7000960108B911F0D8F8A1793868DFF8D8A26943084494F896114A1E02740023A179CC
:202A900038686943084400214174A279396801F112006A4301F1140C8352A279D8F8000079
:202AB00000EB42136A434CF80230A2796A431144A64A8A61DAF814100B78DA074CBF4FF007
:202AD000100C4FF0000C99074CBF202100215A074CBF402200221B0700F10803A07941EA20
:202AF0000C014CBF4FF0800E4FF0000E0A4340014EEA020242F00F021A54D8F80000A1792F
:202B100000EB41100B224272D8F80010A07901EB401104228A728E4A1378D8F80000A179E3
:202B3000012B00EB411002D10121C17203E0DAF828104A78C272D8F80000A17900EB4110EC
:202B50001F220276D8F80010A07901EB401100224A76A07909F0F6F9A279D8F80010520145
:202B70008850A2795301C85820B90721204610F05AFDCDE07748016801EB021012F0A0F8B3
:202B9000744AA0791368D8F8001003EB00130A1D40011350081DA27952018058F063A07950
:202BB00040010958716404219BF8000008F090FE644BB2881978901C11B10AB9F088801C91
:202BD000618A94F806B041434FF4C87205FB0BFBB1FBF2F1491CA061616140F6C41C236859
:202BF0003A68CDF800B002F1080ED3F80CB00CFB00B0411A0098A1F5A8614EF8001002F18C
:202C10000800A17969434058986002F10C01A07968430C32095C01F0EF011154A0793968DF
:202C3000684301F10C020C31125C02F07F020A54A0793968684301F10C020C31125C02F05B
:202C5000F00242F002020A54A179386869430844417B01F0F00141F0010141733868A279EC
:202C700000F108016A438858216808616369D8F80000A17996F802E05B0000F114024901F9
:202C90000CFB0E3303F5F6635350A17900EB4110C27C02F0F00242F00402C274D8F8001022
:202CB000A079DAF8303001EB4012F0880CFB00F61868301AA0F51670D061A27901EB421097
:202CD000C17E01F0F00141F00401C176A17938684D4321684019486099F80100810614D580
:202CF00004F59771488F1B2804BF888F1B2808D1C88FB0F5A47F04BFB4F86E11B1F5A47FDD
:202D100003D0142120460CF025FB134907200870BDE8F14F01F06AB9104F0020B44D002085
:202D3000684E0020F44B0020742800206E4F00207028002008280020504F0020E9FF000006
:202D500001080100784E0020785C01005C4D0020734F00208C4E00206F4F00202DE9F843CA
:202D7000040014D1002010F057FF10E020460DF045FB012808D065E08A0740F1548101F083
:202D9000FD0101700020B07120460DF003FA04F16605687D002855D0697CDFF8A494022962
:202DB00004F1EC0704F59E7804F5B07604F5C67035D0042949D005295CD0062900F08A80F0
:202DD0000729D3D0092900F0EC800B2900F0C1800C2900F008810D2900F0D0800E2900F0D2
:202DF000EA800F2900F02881102900F04281112900F05C81122900F00E81142900F08781A6
:202E1000162900F05A81172900F07581FC2919D0FD2900F09581FE2900F09B81A2E7297CD7
:202E3000012909D199F80300002815D01621204610F0F9FB012006E020460CF076FE2874D3
:202E5000E88A28830020BDE8F283297C012940F0948199F80200002800F0E580FC21204664
:202E70000FF09EF9A07904F1B80204F1B00111F023FF8CE7297C01290FD199F8020020B195
:202E900084F89410002038607860B87A012868D1062120460FF084F979E704F1E7063078EB
:202EB000012809D120460FF043F80128CAD10020B87201202874C5E770780028C2D004F151
:202ED000C70204F1A00104F1D70011F0F1FE012030705CE7297C012940F0538199F802005D
:202EF00000283ED0618CE18320460DF053F90120287020460EF0DEFB0120A871397A787CB5
:202F1000012900F010000FD148B1002088F80500D8F8001098F8060049080CF01FFBA07903
:202F3000002111F0C1FE0EE040B1D8F80020C54804F5A1735208214611F0D8FAA0790122E7
:202F5000002111F0ADFE002038723873F872B8721DE7287C012805D1F97A012908BFFC2163
:202F700097D060E020460CF029FA0128A3D10020F87284F894000120287408E7297C012963
:202F900040F0038199F80200002809D0002184F894100120287020460EF08CFB0120A871BA
:202FB00088E0297C012940F0F48099F80200D0B3618CE183E8E6287C012840F0EE80387CD2
:202FD000022804F1FD0204D1A179002011F064FEDAE6032840F0EA80A1791A2011F05CFE1D
:202FF00000203874D0E6287C012804F20D1140F0E8800B78012B04F5897240F0E8804878CB
:20301000012807D15388009300201388CA78A17911F03EFEB8E6297C012940F0E78099F848
:2030300002000028F6D1298B481E288380B200287FF408AF2221FAE6287C012840F0DA80CC
:2030500098F80910012902D130780F281BE098F80800012826D1002188F80810288D0009B1
:2030700000901A20AA8CEB8CA179520811F00CFE8AE6287C012840F0C18098F809100129C9
:2030900010D1307810281CBF002010F0C5FD002088F80900288D00090090AA8CEB8CA179E4
:2030B0007078E2E7287F0028E2D1BCE7297C012940F0A88099F80300F5E7297C012940F094
:2030D000A580017B4A061DD4CA0709D501F0FE0101730023A1797078002209F0DBFA53E69D
:2030F0008A0740F1988001F0FD0101730023A17900221A20F1E7297C012940F09980027B7D
:20311000510690D5017B01F0BF0101733CE6297C012940F08F8001788A067FF52DAE01F0C9
:20313000DF010A0701700AD501F0F7010170F08B0090738BB28B318BA07911F0CDFD21E6F7
:20315000A97E20460FF02CF815E7002010F064FD78E6A87E0F28F8D1FC2120460FF020F814
:20317000B8F812000090B8F81030B8F80E20B8F80C10A07911F0B8FD64E6204609F0A0FF3C
:203190005DE620460DF00EFA59E620460EF0D6FB55E620460CF078FB51E620460BF062FEF5
:2031B0002874E88A2883012038744BE6288B401E288380B20028F8D1A179222011F06CFDA3
:2031D00038E70120887020460BF006FB37E6288B401E288380B20028E7D1508800902220B0
:2031F0001388CA78A17911F053FD23E720460DF069FC24E6204609F09DFA20E6204609F040
:20321000E9FA1CE620460CF031FC18E61621204609F04EF813E6288B401E288380B2002841
:20323000C3D1A17900230022222009F033FA01E71721ECE7142120460AF0FEFCFFE500BFFE
:203250005C4D002075E700002DE9F84FDFF82844A178FF2904BF002010F0DEFCA07810F083
:203270002DFF044604F1680604F5C9753168086804F1900710B10022E28310E0B17B00290C
:2032900004BFB07E00280AD13978002904BF2878002804D1217F012904BF608CE08321896A
:2032B000E08B4118491C6181204610F0BFFA01281EBFDFF8C8030178012904D120890022E9
:2032D000401CE2836081B07E01280CD1B28B6189208911F0D5FC30B121896289481C8242C8
:2032F0002AD0B28B1FE0387801280CD17A886189208911F0C5FC30B121896289481C8242DD
:203310001AD07A880FE02878012815D16A886189208911F0B5FC00281FBF2189481C6289DD
:20333000824209D06A88824206D0501E608180B211F0A2FC401EE0832878012801BF6988F9
:203350002089401C814207D16A792A71002028701346A17909F09EF904F59A71087920B12E
:2033700020890021401CE183608104F12E07B07E012801BFB08B2189491C884238D1608193
:2033900004F18601204610F031FAB08C6189608400202077E083E0894118A181B08B218923
:2033B00011F06AFC8046B988308C728C01FB0808F08C8A4204BF3989884202BFB18CFB88B1
:2033D000994207D000090090B38CA1795208002011F05AFCB07F3870708CB880B08CF880A9
:2033F000F08C3881204610F0C3FB0220B07601E0B7F80480E28BDFF88892501C00FB08F14A
:2034100040F6C41808FB01F000902368D3F80CC06044DFF870C2D860DCF800E09A489EF8D3
:2034300000A003884FEA9A1ABAF1030F13D199F80FC05FEACC7E48BF00230CD45B1C9BB202
:20345000012B11BFB4F812C004F59A7CBCF806C00CF2DC5C01E0B4F812C00CFB01FC4FF47D
:20347000C87EBCFBFEFCDFF824A20CF1010CC4F814C0038084F820204FF01C0BA379A1614B
:203490000BFB03F3DAF80010226801F1080001F1080CC058D3681061A0790BFB00FE60690A
:2034B0001B1A4CF80E3001F10800A3790BFB03F3C058906001F10C02A0790BFB00F00C31DF
:2034D000125C02F0F00242F002020A54DAF80000A279811C0BFB02F200208852287908B916
:2034F00010F09AFBDAF80000A27900F1100128790BFB02F240088854A079DAF800100BFB78
:2035100000F00844002141742879042814D1A079DAF800100BFB00F001F110022B7A125CCF
:20353000103142EA83020A54A179DAF800000BFB01F1084420214174DAF80000A27900F127
:2035500012010BFB02F200238B525149A2790968520101F11403D4F814C09B5801F1140E25
:2035700003EB4C034EF80230B27E022A0AD1A279520101F114033E789B5808FB063301F101
:203590001406B35099F80F20D30749D5A2790BFB02F200F1080300F108069B58A3F5A863A0
:2035B000B3500830A27923680BFB02F282589A600098121A1A6101F11402A079400101F1B9
:2035D0001403125802F5F6621A502879042807D1A079400101F11402125802F5B0621A50BD
:2035F00001F11400A27952018058C4F8340101F11C03284AB888166BA57908FB00F730688A
:203610006D01381AA0F516705851A37901EB431021490D78012D0EBF0122916A4A7819E0F8
:203630002879A37904280CBF4FF44B604FF4E66001F114025B01D258101ABA8808FB02F25E
:20365000A2F516729042D2D3082120460FF0EBFF01200FE0C272A179DAF800000F4A0BFBBD
:2036700001F10844216848600720107020460EF004FA0020BDE8F28F684E0020784F0020BF
:203690005C4D0020084F00209A2800207028002074280020785C0100734F00206F4F0020EF
:2036B0002DE9FE43BF4C0F460646F80B80F05081B80880F03D81E07ADFF8F492B90F80F0D6
:2036D000B680607A002840F096803809C0F09580A07A20B10020A07205200EF06DFF002585
:2036F0004FF001086570284684F8078007F0FFFEAD4904F174002A4610F089FF207901281F
:203710001AD16079C0B9DFF8A482D8F8000000284CD048460068006B804761694346401A76
:20373000000BA0611968E2698018B0EBC11F98BFE0613BD9E56101E084F80480DFF87482EE
:20375000A8F115000068000A30D340F60900A08694F8410000F0F00040F0010084F8410036
:20377000E58694F8400000F0F00084F84000A56310F047FF08F6FF7211686FF0020321F0BB
:203790000201116004F13401C8F8FB3F8A4AC8F8EB1F11688908FCD3C8F8FB3FD8F8FF1F22
:2037B00041F00201C8F8FF1F11F062FA65610EF0C1F98248056002200EF0FEFE112008F098
:2037D000E7F8307C10B90E2008F0E2F8E5712572A07818B906F1380010F029FF784810F098
:2037F000FBFD78490878F8B10D7004F1D000042110F025FF18E0380914D2B80BC0F0C98071
:2038100004F1240010F00DFF061C08D0706830B17568F068B6F91C1000222023A84727F441
:203830000057B6E00020607227F00807B1E020B104200EF0C1FE0020E072B168088840F6DF
:2038500002054FF0000885420AD0B0F5C15F07D00A8B4FF61F60104040F43470088306E0DB
:203870000A8A4FF61F60104040F4347008826069E0B1D9F85400016804208847B0B1D9F821
:203890000000006B80476169814226BF401A401E401A000BF060708AF168401840F6C41151
:2038B000F06081422CBFB0F5FA7FF16094F8410010F00F0F0BD1708CED1D854207D1B56901
:2038D00030466FF4807142464FF00073A8473E4904F17400424610F09AFE607958B10220D1
:2038F000ADF8000068460FF01FFC84F80580BDF80800A4F8700001206070E078401CE0708C
:2039100004F1200084F8068010F08BFE002808BF47F0020702D0192010F077FE75694146E3
:2039300030464FF080630A46A84727F0005730E004F12C05284610F074FE06F051FF284668
:2039500010F06FFE27F0020708B147F0020720E010F057FE014604F1280010F062FE06466C
:20397000B569A80810D27EB125EA0500B061084611F07EF9706850B12A46F068B6F91C10F1
:2039900075680023A84702E0084611F071F927F4804727B104F1D000394610F050FEBDE89C
:2039B000FE83C046980F0020F93401006C2800208C01001015000440101004400000046009
:2039D000E9A8000068280020E99F0000BB482DE9F84F0025BA4CB849056094F8E200002887
:2039F00000F06581012800F02F81B64E02283CD0032840F05C8151F8250CD4F8B81000296F
:203A1000A0F5C060C4F8D400B8BF49420028B8BF4042814226DA4FF08057D7F8A401456834
:203A3000B4F8BC0030214FF47F42082300903046A847D7F8A4014568B4F8C00004214FF4A4
:203A5000F802122300903046A847D7F8A401B4F8D070456820214FF440620A2330460097C5
:203A7000A847012584F8D8501CE151F8258C10F0C5FC2F4600B901273946934F3868002846
:203A9000FCD0B146012609F10409D9F82CA03E6009B110F0B9FCCAF30720C4F8BC0010F01F
:203AB000ADFCAA4600B9B2463B68002BFCD0D9F800B0BAF1000F3E6001D010F0A5FCCBF309
:203AD0008440C4F8C00010F099FCAA4600B9B2463B68002BFCD0D9F81C90BAF1000F3E60F1
:203AF00001D010F091FCC9F38120C4F8D000B8F5C061C4F8B81000F09C8094F8D80068B98C
:203B1000C4F8D410D4F8C000C4F8C800D4F8BC70C4F8C470D4F8D030C4F8CC30D4F8D410C9
:203B3000D4F8BC30002954BF02206FF0010004F1C802176801EB41014018411000EB9171FD
:203B500007EBA1001060D4F8C810C4F8C43000291CDD1E293CDDD4F8CC0030B93429B4BF2B
:203B700015391E21C4F8C81025E02A29BABFD4F8C8000B381E20C4F8C800D4F8C4003F28B3
:203B9000B4BF401C3F20C4F8C4001FE0D4F8CC00032812D011F10B0FC6BFD4F8C8000B3053
:203BB000301CC4F8C800D4F8C4000028C4BF401E051CC4F8C450032508E011F1150FC6BFE0
:203BD000D4F8C8001530301CC4F8C800C4F8CC504FF08057D7F8A401B4F8C43030214FF496
:203BF0007F424568374800930823A847D7F8A40104214FF400321123456832480096A8472D
:203C1000B4F8C860D7F8A40104214FF4F802122345682C480096A847D7F8A40120214FF417
:203C300040620A23B4F8CC60456826480096A84701E084F8D85040F2FF50404502D8801C2C
:203C500040452FD2082030E051F8251C1F4F4BF2F5204843060A3868C0F3814001280CD197
:203C70001B480068006880470DF046FF10F0D2FB3111C010484306EBE03694F8E50030B92D
:203C90001448006820F07F408019460801E084F8E5501148310C0660012741600F4D876000
:203CB000287808B90B2000E0052084F8E40004F05FFDBDE8F88FC0462D400C402C500C4000
:203CD0005C17002000A00C4000800C40B43F0050EC010010102009403C600C40965B0100F6
:203CF0002DE9F04F0D46E80789B00BD510F0C6FA28B100218160AE48006800B1804785F01E
:203D1000010052E1A80710D5002006900021049000230290009005910393019101223C20DE
:203D300010F0A2FF85F002003FE11E246807DFF88482A14F40F19B800020079082469F490A
:203D50008878FF2804BF00200FF066FF386890F8A00010F0B3F906463868C07A96F82EB1DE
:203D7000022818BF032806F5947906D108F10D0010F076FF08B908F1070A4946584610F0B5
:203D90006BFF88B33868807A002818BF012804D1414648460EF071FF04E04A4659464046BB
:203DB0000BF076FCFF283DD06043834608EB0B0406224946E01D10F06BF818F80B0040F082
:203DD000020BE01D079006223868817E01F0010186F82E1104F10109386800F1140106F51B
:203DF000947010F055F81DE04946584610F0FDF8C0B14A46594640460BF04AFCFF2811D0D4
:203E10004443444404F10D0010F02AFF40B904F10D0010F025FF002804BF607F012801D174
:203E30004BF0020B06F12C005B4601780691418909090591728C079904920122C0880291B2
:203E500040080390CDF804A0CDF800900020B17910F00AFFD6F89C0159498842B0790CBF9B
:203E70000021012109F00CFD85F004009DE0280610D5002006900021049000230290009034
:203E900005910393019101223B2010F0EDFE85F080008AE0E8043CD508F1070108F10D0088
:203EB00010F0D6FE38684179012923D1017A012918BF04291ED1C17A022918BF032919D1BB
:203ED000817E00F1140240460BF0E2FBFF2811D04443444404F10D0010F0C2FE50B9E11D8E
:203EF00004F10D0010F0B4FE38680622E11D14300FF0CEFF334934484A6800784FF48051F2
:203F10000DF074FB10B18E2010F09EFE85F480504BE0A80505D510F071FA2C4901200860B6
:203F3000FEE7690504D507F072FC85F480603CE0680405D5812010F087FE85F4804034E0B2
:203F5000A80431D5224C206810B100200FF064FE4FF0FF3020600BF059FD1E4C216851F8EC
:203F7000202F684690471C48C16A026B2468009101920021029100F134014A680978136829
:203F9000806A03938DF81010ADF812006B46D4F80080124A12491348C0471349086003F068
:203FB000E5FF85F4005000E0002009B0BDE8F08F204F0020781F0020104F0020684E0020CC
:203FD000E9FF0000784E00206E4F0020FC002043044F0020F04E0020B81B0020AC27002010
:203FF000001E002088490020EC4E00202DE9F04FB64D686885B0019020B905B0BDE8F04FC8
:2040100010F01EBE0178DFF8C882B24EDFF8C892DFF8C8A201291CBF0229042946F2A81754
:2040300041F64C5B05D0402918BF802900F09A8043E110F00DFA0028FAD00198007805F0A7
:20405000F7FC0090446814B900200FF0E5FD9AF80100002860D002F0D5FA10F02FF80290EE
:204070000168009801914F680AF032FF022827D000990A78012ADBD1994B19680A7A19F8AE
:204090000230337018B910F0D7FD5844A0602069C17E01F0EF01C1762069C17E41F08001A0
:2040B000C1762069C17E01F0F00141F00201C1768C48B96841182069C16101210098A0E071
:2040D00001980178802913D10822874832700178012903D09AF80100012803DD7869012181
:2040F000C17213E0D8F828107A690878D0720DE07D49072030700A787869012A02D10123DE
:20411000C37203E0D8F828104A78C2720298817901988AF80210CBE00098002888D001995B
:20413000009A0078914205D101281CBF00200FF073FD15E0012840F0C080694801680A7AF5
:2041500019F80200307010F077FD3918A06810F06FFD18B910F070FD5844A0600120A87050
:204170000098A5E09AF8010000287DD002F04AFA0FF0A4FF04462068029047689AF802008B
:204190000FF09CFF039010F069F910F0070F3DD0A87805F04DFC0190416801980091029900
:2041B0000AF096FE022831D001990A78012A2AD14B4B19680A7A19F80230337028B910F092
:2041D0003BFD83440098C0F808B000990869C17E01F0EF01C17600980069C17E41F0800175
:2041F000C17600980069C17E01F0F00141F00201C176009AB9683B4841181069C161012197
:204210000198A97054E000200FF006FD0398A04228D002980178802913D10822324832702B
:204230000178012903D09AF80100012803DD78690121C17213E0D8F828107A690878D07286
:204250000DE02949072030700A787869012A02D10123C37203E0D8F828104A78C272A07974
:204270008AF80200029823E010F0F8F810F0070F29D0A87805F0DCFB04462078D4F80480F0
:20429000012820D116490A68107A19F80010317010F0D2FC3918D8F8080010F0C9FC20B942
:2042B00010F0CAFC5844C8F808000120A870204605B0BDE8F04F06F0DFBF05B0BDE8F04F5F
:2042D00000200FF0A9BC05B0BDE8F08F4C280020785C01006F4F0020289A0110684E002081
:2042F000104F0020F0D8FFFF734F00202DE9FE4F0F46994C0168E16241688068E06097488E
:20431000A16080479648E16A0160A168DFF870B24160E168DFF8648281609249002FA246BF
:20433000C16069D03D68E8788DF8080028798DF8090002A810F078FCA86808B18A49016037
:20435000E86808B189490160894C2878207068786070A878BE68A0703178E170736863606E
:2043700072696261B168A160F168E160316921612E697B68A6621868A0616869E062A86998
:204390002063287F84F834002A6AA263786886681EB900200FF040FC00E026627868C0682A
:2043B00018B900200FF038FC00E060627868406818B900200FF030FC00E0E0612869A062CF
:2043D000F86881680E6806B96B4E6A494FF001094E60C66881F801902EB900200FF01CFC96
:2043F000F868454601E045462E6000685C46FE68A0617068E06106E000200FF00DFC4FF0F1
:2044100001095C46454628685E494668621C04F114035020B04710B1286880688047DAF8AD
:2044300008008047594F0026834669467E7056483E700422206130460EF05AFA0098B0F571
:20445000801F0CD020B90EF0C1FD05F0ABFC08E00DF088F80FF064FE0420788001E00EF0DF
:20447000B5FD4B4FB0462868C7F808808069A660804778604748468080F8009014200FF0F5
:2044900025FFFF211422A06210F0E5F8E01CFF21022210F0E0F814200FF018FF3E49086062
:2044B00008681422314610F0D6F83046FCF782FA48460EF051F939480188FF2906D102211A
:2044D00001807822001D314610F0C5F8032010F0A7FB042010F0A0FB052010F099FB0620FD
:2044F00010F092FB07200BF093FC2D4E0820307006F1400010F084FB0BF028FF36360520C2
:204510000A2132460FF07DFA38B14046C0F10901401C06F8011B0A28F8DB2F6821490920A3
:204530000DF10A0201AB7D68087010204146A847A06AE2690A270A309DF80A1000F8011B2F
:20455000DAF80C107F1EF7D1921E5846E261884702F0F6FFBDE8FE8F30190020414900107C
:20457000F8440020484D0100A92E0100B13D0100B81B00208C1E002063040100501F0020BE
:20459000BC1C002041350100713E01004C1F0020402800206C1B00208C2800205C1A0020C8
:2045B000A4130020A52800202DE9F04F0546A64CA878216AADF11C0D801F00F03E81C01EF7
:2045D00000F02981401E78D0401E56D0C01E4AD0401E40F03581207A617A00283FD1607846
:2045F00000283BD0A88810F007FB071C00F02881A87A40080AD3787940B1E968890A05D2A6
:20461000B91D01AA07F052FF0A2825D0207B022802D1A87A00091FD36078AE887979C0B174
:20463000607CB0B90120607405F10802304603F043FE002840F00481206A002800F0008186
:204650004368002B00F0FC80002130460A469847F6E00521304603E0032100E00521A88893
:2046700010F0C6FAECE0002900F0EA804B68002B00F0E6806A780221CBE00FF007FE00280B
:2046900000F0DE80276A0FB1386868B9286900280CBFE0690120698910F0A6FA002800F012
:2046B000CF8068890121DBE7286900903C6869892A7B6B7BE81CA047C2E068784FF00008D0
:2046D000002840F09580A8794008C0F09180606A002840F08D8001A841460E220FF0BBFFEB
:2046F000A88810F089FA061C00F0AA806869002859D081464146062209F111000FF006FB18
:20471000C24620B3484606220FF000FBD8B999F8100009F1110B474605907F1C5846FFB2AA
:204730008BF800700EF068FC0A280BDA474B059A0101A1EB400158188079824202D1002FCE
:20475000EBD100E01FB947464FF0010A6F61BAF1000F09D109F1110101A806220FF098FB2B
:2047700099F810008DF80A00BAF1010F1BD06F69CFB1387C07F1110106228DF80A0001A8DD
:204790000FF086FB06F10C00B11D06220FF080FBB01D07F1110106220FF07AFB387C40F0BF
:2047B0000200707107E07079B11D06228DF80A0001A80FF06DFBA9799DF81120C1F3800085
:2047D00010438DF81100080905D39DF8110040F008008DF8110001A8294602F001FC28B99B
:2047F0002078022107F074F840462AE04FF015080FF064FE206A18B343680BB3A8886A786E
:2048100001219847B8F1000F1AD0206A032142464368A8881BE7E878291D002207F046FECF
:204830000A280DDA410001EB800005F10C0225300421C0B205F058FF02E0A8880BF00AFE51
:20485000012007B0BDE8F08FA4130020961400207CB5A34D144602460026A2F58062192A06
:204870001BD8DFE812F031012A012201190111010C010401FD00F300E700DF00D700C5005C
:20489000B9001A001A00970081007A0065005C00520047003A0030002500282880F29A80C4
:2048B000022940F09780218810F09AF9064614E1012940F011812178284601750121C17439
:2048D0000FF006FC09E1012940F00681002C00F0038128461230024614E0102940F0FC808B
:2048F000002C00F0F98028465C30102221460FF0CFFAF2E0012940F0EF80002C00F0EC8095
:204910002A46921D21781046E4E0262940F0E480002C00F0E180284626226C30E6E701290C
:2049300040F0DA80002C00F0D7802846401D9CE0602900D144B9012940F0CE80002C00F008
:20495000CB8028460D3090E005F19200214660220FF09EFA01206873BFE0012940F0BC80A8
:20497000207810F039F9B8E0012940F0B5802178022900F3B180284600F10C0211702178C7
:20499000022918BF301C02D11021C172012010F01FF9A2E0072940F09F80611C68460622F5
:2049B0000FF064F920786946324607F07FFD04460A2C0FDA10F008F938B9204605F0CCF8DF
:2049D0000EF0A2FC0BF0C2FC87E0284601212C30015582E0022680E001297DD12A4621785E
:2049F000907B0028917378D12078012875D1E9E72846027B01296FD1022A04D02178072932
:204A100001DB102904DD022A66D12178102963D1C17262E001295FD121780A295CDA2846E8
:204A3000093057E0012957D12178022954DA284608304FE000294FD110F0C6F810B90FF00E
:204A5000EAFABDE7284601210F3043E0042943D12168244888423FD328461C3001603CE083
:204A7000012939D12B4603F10A00217832E0012932D1217802292FDA2846C01D2AE0102950
:204A90002AD128464C3030E7012925D12178022922DA2846001D1DE001291DD121780429C4
:204AB0001ADC2846C01C02462DE7012914D12178022911DA2846821C25E702290CD12188C3
:204AD00028461630018008E0012905D12178022902DC0548017000E0182630467CBDC04676
:204AF000A41300203F420F00A51300202DE9FC41A0F2013714468846022F40F232819B4E23
:204B10009C493F1F0F2F04D9143F4CD0BF1E1CD011E0DFE817F0CF00C9000D01FA00C100CF
:204B3000B9002601AF00A700100010009D008F007F0074006600282880F21381B8F1020F7A
:204B500040F00F818849238807E1B8F1010F40F00881F078012800F004813246207811790F
:204B7000107189B9002800F0FC805078012800F0B580042800F0B280062800F0AF800528F0
:204B900000F0AC80BDE8FC812078002840F0E9805078032800F0AF80072800F0AC800528E4
:204BB00040F0DF80A7E0B8F1010F40F0DA802078012840F0D68006F1EC000FF04FFB0028F1
:204BD00040F0CF803446002004F13A0108F068FF002840F0C68004F1C8000FF036FDBDE8EB
:204BF000FC81B8F1020F40F0BC8020880A28C0F2B880B0F5486F00F3B4808E1C17E0B8F171
:204C1000020F40F0AE802088B0F5FA7F80F2A9800E460CE0B8F1020F40F0A3802088062891
:204C3000C0F29F80B0F5486F00F39B803E363080BDE8FC81B8F1020F40F093802088062810
:204C5000C0F28F80B0F5486F00F38B803C36EEE7B8F1010F40F085802078062880F28180BB
:204C7000454E0EE0B8F1010F7BD12078042878DA0A3606E0B8F1010F73D12078082870DA53
:204C900009363070BDE8FC81B8F1010F69D12078042866DA0836F4E7B8F1010F61D1207870
:204CB00004285EDCF61DECE7B8F1020F59D120880E36BCE7B8F1010F53D13079012850D056
:204CD00032462078D178D07069B9002849D05078012803D0042818BF052842D101200FF0A1
:204CF000EDFABDE8FC81207800283AD15078022818BF052835D110780EF04AF81C4902465F
:204D1000102003F0A3FBBDE8FC8106F1830500211F22284609F04FFB21464246284607F0BA
:204D300047FE44463078B4710EF032F8002311E006F1640500211F22284609F03CFB2146C4
:204D50004246284607F034FE4446307874710EF01FF801230094094901950246102003F0ED
:204D700075FBBDE8FC81C046BD840110000A002099450110400A00203A0A002009450110F3
:204D90002DE9F04F9E4C20780E46F10BADF11C0DC9036ED1B0085ED2606AA16A720807D2FA
:204DB000F00828BF86F0040680F02581002023E1858861B904F11800924A00904FF6FF71F5
:204DD000022301200FF0FCFE0146A16221B304A800900027019702230293FF220392228B4E
:204DF00028460DF1120301F005FB58B99DF813009DF81220A16A12EB002204D04989284673
:204E10000CF016FCA16A228B08463B464FF6FF710FF0D2FE0146A162206A00291CBF01216F
:204E300086F001061FD168B14368616A5BB18888002201219847206A676A4368B8880321BD
:204E500000229847616A88880FF04CF90EF0C8FE86F00106CFE00020014602F0C1F830B13F
:204E7000012186F00206207806F032FDC3E00221F7E708F047F85FEA000800F0BA80054624
:204E900028784FF0010AB03812D0401E03D01F3800F0A580A7E02879002840F0A480B8F85D
:204EB0000200B8F80610B8F808200CF0C1FB9DE02879401E41D0083803D0743800F082804C
:204ED00087E068781A2879D0688881460FF0F0FA801E18D0401E7CD1288901280AD1688979
:204EF000032807D1E9688A78484604210BF03AFE024600E01822206A00286AD04368002B42
:204F100067D0042116E02989688852460129814609D16989032906D1E9688F781FB91021D4
:204F30000BF020FE0246206A002852D04368002B4FD00521484698474BE02B7A688805F1EE
:204F50000807082B814639D10FF0B2FA801E12D0401E33D1287B0A2818BF122205D16889FA
:204F7000042100220BF0FEFD0246206A30B3436823B3042120E07888102100220BF0F2FD4C
:204F9000237D834693B148460FF036FE70B11E490B784BB94179831D524601F00101084651
:204FB00019460EF08CFE01E05046E074206A28B143681BB105215A467888984768880FF0C1
:204FD00091F806E06A880FF073FA014610460BF04DFF297905F108000FF0A6FE03E0404664
:204FF000FFF7E2FA8246BAF1000F02D028460EF06DFC86F40046B0B207B0BDE8F08FC046A3
:20501000A4130020145901005A4F00202DE9FC41884C894A2678894F894D8A490D2E3046A8
:205030004FF4A0534CD8DFE816F003010E000E000E000E00FB00FB006800FB00A700A70056
:20505000D800D800DF008049176041F204464C887E4FB4421CBFB1F81AE0B6450BD0B1F860
:205070003280B0451CBF41F20A46B44203D0B64518BFB04502D12E80176076E0022C744E4D
:205090002C8035D94FF48067E41B1AD0241F012C1DD94FF47F77E41B1BD04FF44067E41BC1
:2050B0000FD0A41E012C0CD9241F0AD0641E012C0DD940F2F937E41B012C19D9241F08D0E0
:2050D000AEE0022814BF2B80624E16604DE0624EFBE762480468257A012D05D141F2024077
:2050F000488048834886F0E74B804B834B86ECE700200EF091FD832096E059488178FF29A4
:205110001ED01C2041435748176040F204460068841C645A2C80A41B012C534D10D94FF415
:205130007F76A41B15D00A3C012C14D940F6F636A41B032C84BF641F012C0ED9A41E012C4D
:2051500076D940F2FD36A41B07D0641E012C02D905E041F20143801C4352156005E0002064
:205170000EF05AFD85200FF0B3FDBDE8FC413F480078012106F0ACBB4A882A8040F2044321
:20519000D21A55D040F6FC73D21A15D0083A4FD04FF47F73D21A22D1354C364A25683648F7
:2051B00000680023CDE9002355F8086F334B0222B047334908803BE0092810D131490A6801
:2051D000508960B1304908780BF010F8002100200FF0EEFC002020702AE04888288000205D
:2051F0000EF01AFD85201FE04A882A80022A0DD940F20440121A1BD040F6FC70121A05D028
:20521000083A15D04FF47F70121AE8D1887B801CC0B2B528A8BF662088730020488007E09B
:2052300000200EF0F9FC8420BDE8F6410FF050BDBDE8F3816F4F0020204F0020D145010022
:20525000504F0020EC270020204A00202128000001A2000041BD0000755B0110104F002078
:20527000684E002070280020F56100006E4F0020F04E002002000080EC4E00208D1901007C
:20529000424F00207C280020714F002010B50B7884074CBF43F0020303F0FD0304064CBF8B
:2052B00043F0800303F07F0304074CBF43F0080303F0F70384064CBF43F0200303F0DF03B2
:2052D00010F0AA0F0B7004D0107840F00C00107010BD18B9117801F0F301117010BDF8B56B
:2052F0000F4600263878022814461D4667D1786801784278069801EB022189B2002818BF5A
:20531000B1F5285F01D00B20F2BD4FF42850091A0AD0491E1ED0491E4BD0491E22D0491E56
:2053300028D0C53941D04AE0F8680FF096F9069B079980B2C21A8A42ACBF0846C01A80B25E
:20535000C118162904DA28800246F868C1180DE00D2636E0F8680088022129802070000A9A
:2053700060702EE0062028800622F96820460EF08FFD26E0F868B0B1082129800188217045
:205390000188090A61704188A1704188090AE170818821718188090A6171C188A171C0885D
:2053B000000AE0710DE029800BE04A480178CA0705D401202880F8680178217001E02E808A
:2053D00001263046F2BD2DE9F8460E46814630780024022817469A4678D17068017842787B
:2053F0003C4D01EB022189B24FF42850091A08D0491E30D0491E55D0491E3FD0C63960D07C
:2054100064E0F0680FF029F9089980B2884206D308460AEB0001162903DB0D2457E0072455
:2054300055E0F3685246394618440EF031FD08985044ADF8200000210898F368C0F116024F
:2054500018440FF008F9686800281CBF0268002A3DD0002123E0089888BBBAF1020FDCD1FC
:2054700039787878F26801EB00211180686800281CBF0268002A2AD0012110E00898F0B9C7
:20549000BAF1060FC9D1F068062239460EF000FD686800281CBF0268002A18D003214846A7
:2054B000904714E0089850B9BAF1010FB5D13878002813BF0128F1680870802407E00B24C9
:2054D00005E02878C10758BF032400D501242046BDE8F286BC1E00202DE9F04F8246DAF8CB
:2054F00000600C465FEA0208ADF11C0D14BF00214FF0FF3106F1480083460EF054FE0028ED
:2055100018BF0B2040F00681002565708448F460B8F1010F057004D065700220F4600DF05E
:205530005FFA2078012840F2AB80801E012868D9801E012833D9801E012800F2DF800FF0F2
:2055500060F806904FF0805000F5EE77D0F8DC01A378466A009321782846062908BF0120C3
:20557000019001200290A068228AE1686368B047814606980FF07CFBB9F1000F40F0C08014
:20559000B8F1000F02D00EF053FC02E050460DF06BFE002800F0A4803868806A2AE00FF077
:2055B00030F806904FF0805000F5EE77D0F8DC01012306680093A168A27860682478AC4671
:2055D000042C08BF9C466346B047814606980FF04FFBB9F1000F40F09380B8F1000F02D00E
:2055F0000EF026FC02E050460DF03EFE002877D03868406880474949C1F8B0510D608146CC
:205610007EE00EF0FEFF06904FF0805000F5EE76D0F8DC01E38A87690093E0680190208B0A
:205630000290A0780390207D04900121059122782846022A08BF081CE1786268A368B847E8
:20565000814606980FF014FBB9F1000F58D1B8F1000F02D00EF0ECFB02E050460DF004FEFF
:2056700000283DD03068006A80475FEA000947D13068C569A168E28A2369E078A847BEE7FF
:205690000EF0BFFF06904FF0805000F5EE76D0F8DC01E38AC7680093E0680190208B029056
:2056B000A0780390207D2946049001200590257805B9014608466268A368E178B8478146F5
:2056D00006980FF0D5FAB9F1000F19D1B8F1000F02D00EF0ADFB02E050460DF0C5FD08B983
:2056F000142017E03068406980475FEA000907D1306802692169E078904780E74FF0FF39A3
:20571000B8F1010F02D002200CF056FF58460EF08EFF484607B0BDE8F08FC046504502400C
:20573000A42800202DE9F04FDFF80CB29BF80000002885B004D0401E032804D9801F012891
:2057500040F2F780EFE07D4DDFF8F4812868DFF8F49103687C4E03F10807062207F108015E
:2057700003A80EF095FB0622B91C01A80EF090FB3878C0F380118DF800101E24C10900F02C
:205790000F02032A39D16879C0F38000814233D12969062203A80EF089F800282CD09DF839
:2057B000000001A90FF058FA002825D0314601A80DF063FA0746FF2F1ED0D9F80000807A13
:2057D0006743002818BF02280BD0012818BF032812D1701CF25DC11940460FF0E5F91028AD
:2057F0000AD0F41901AAE11D40460AF07EF8062201A9E01D0EF04CFB90E000F00F00052863
:2058100040F097806879C0F380008142F4D12969062203A80EF04AF80028EDD09DF8000076
:205830003F7801A90FF018FA7F0940F2024A88B3314601A80DF021FA8346BBF1FF0F6DD0AD
:20585000D9F80000807A002804FB0BF118BF012800910CD0022818BF03285FD10846711CA6
:20587000325C014440460FF09FF9102856D050460FF096F9009806EB000A01AA0AF1070165
:2058900040460AF032F8062201A90AF107000EF0FFFA1CE09BF8000002283FD19DF8001015
:2058B00001AA304609F0F4FE8346BBF1FF0F35D004FB0BF03118487F012805D070BB01F11F
:2058D0000D000FF0CDF948B350460FF069F904FB0BF4D9F80010305D88760622701C0119BC
:2058F000D9F8000014300EF0D3FA184918488A78510604D5F90758BF41F20A4101D541F227
:2059100004414180418341861248134A01801348134908600121107805F0DAFF29680A6814
:205930000020107105E000200EF076F986200FF0CFF905B0BDE8F08F6F4F0020F44B0020C1
:20595000CC470020104F0020781F002008280020204A0020504F00206E4F0020212800000F
:20597000204F00202DE9FE4F05467E48002400680094C0090ED37C48007858B97C497B4875
:2059900051F8112C104040F0817041F8110C20200BF00AFE012D40F0E080DFF80092D9F86F
:2059B000DC00012840F0D6800220C9F8DC000DF09DFE01200BF0F8FD5FEA000805D001209D
:2059D000C9F8DC000DF0A2FEC9E00EF034FEA34602906848684DC0F800B0A86A01680120C0
:2059F0008847012804D1584609F0DEFA012000906248634FC0F800B0386811200EF01CFDFE
:205A100000B1012410200EF017FD08B144F002040F200EF011FD08B144F004040B200EF012
:205A30000BFD20B12868574E016B308888470A200EF002FD20B12868534E016B3088884739
:205A50005248012606602868816944F0200088474F4806600EF0EAFC00F0010101914008C5
:205A700014D2286A81684B4888478246BAF1040FF7D0BAF1010F04D1286A42684548032189
:205A900090474549086820F003000860584600F099F92B683868986B8047019801280CD0EB
:205AB000BAF1010F04D1286A42683A48314690473949086840F0030008603048066028683F
:205AD0004169204688470B200EF0B6FC20B128682C4BC16A188888470A200EF0ADFC20B1E8
:205AF0002868294BC16A18888847284806600322C9F8DC20264BC3F800B02868416B2046C2
:205B100088470128F9D1386804200BF04DFD0446184806603868134800688009FBD3009848
:205B3000012802D1304609F03FFA0EF06DFC08200BF03AFD07460298C9F8DC600FF02CF8E9
:205B5000FBF724FA0DF0E2FD57EA040018BF4FF0FF3804E06FF0040801E06FF00108404699
:205B7000BDE8FE8F1410094044180020FFFFFCFC150009400C400940B801001000022243E1
:205B90002C2009408657010082570100282008608001044300400340242208405C1700208C
:205BB0002DE9F0410246854D854C2978A068521EADF1280D00F08380521E7DD0921E5FD028
:205BD000521E4BD0521E04D0521E42D0521E3ED03BE004F180000EF036FD7549102002F045
:205BF00035FC7449C6B201AB1020721E02F02EFC58B900962978A068002251A3C91CC9B2E1
:205C10000DF052FA0DF106000EE006AE40F21530314604F035F82978A06800224CA3C91CD7
:205C3000C9B20DF041FA30462D78A4680AF0AAFE6D1C03460022E9B220460DF035FA4FF672
:205C5000FF7000210CF074FF76E00A462FE043A302E0C91C43A3C9B200226BE0142008F0D9
:205C700047FDA0682978002244A30DF01DFA00204FF6FF710CF05CFF2A78501CC1B215E068
:205C900004F180000EF0E1FC142008F031FD2978A06800223CA3C91CC9B20DF005FA002024
:205CB0004FF6FF710CF044FF2A781146A068921CD2B20EF08BFB3FE0002237A338E04FF4B3
:205CD000417008A903F0DCFF9DF821608DF8056000278DF808709DF822308DF807709DF8E8
:205CF00024108DF806309DF820008DF80A109DF825208DF804009DF823608DF80B2001AB7A
:205D10002D498DF809601A680A6058684860D4F808802E7808A80AF035FE361D0346F1B2A5
:205D30003A4640460DF0C0F9A06829781DA33A46C91CC9B20DF0B8F90AB0BDE8F081C046CA
:205D50004E756D20436F6E6E733A20256400C046436F6E6E656374656400C0464572726FC8
:205D70007200C046436F6E6E6563746564204164766572746973696E6700C04654696D65D3
:205D900064204F757400C046446973636F6E6E656374656400C046C0416476657274697356
:205DB000696E6700496E697469616C697A656400F17F0110097F0110DF110020E01D0020D8
:205DD000880600202DE9F84FDFF8F4B10746ABF13500DFF8E0910068800880F0D980714854
:205DF0000068006880477A490831D1F8008000254FEA28725FEA985102F101020AD2C0F10A
:205E10003E0110F10A0F4FEAE101D8BF08218A42B8BF0A1C644BD3F87C11C1F30461162976
:205E3000A8BF20391B68C3F30443162BA8BF203B9A465118162905DA11F10A0FB8BF6FF0B7
:205E5000090100E01521594B594E01F01F0242F4F8521A80326812F0030F18BF0125D20816
:205E700028BF45F002050FB145F004054A4692F90730C31A052B04DA9379AB4208BF9188DB
:205E900066D0DFF834E10F28A0F10F0C25DB0CEB0013A3F1F00C4FEA2C26072E88BF07261F
:205EB0003446062C88BF06245EF82470042303EB84037446E358DB1B03F0FF04EF0824BF74
:205ED000C3F307273C44AF0824BFC3F307473C446F0828BF04EB136401E0002426465EF8A5
:205EF00026E0EF080EF0FF0324BFCEF307273B44AF0824BFCEF307473B446F0828BF03EBD0
:205F10001E63A4B2ACEB0626AAEB01017443002904F1800403EB1423D8BF0121342408F0B9
:205F3000FF074C43A1B27943B1FBF3F14FF6FF738B4238BF191C802889B2918005DA10F199
:205F5000800FB8BF6FF07F0000E07F20D07195711A4800681F2910604FF0000008D340F2B9
:205F7000FF128A4206D24908401C8A42FBD301E01F219180134F0F39090940EAC10047EA0B
:205F90000001CBF8FB1F0026CBF8FF6FBDE8F88F0D490E4F4A4608200F60921D1070BDE8E2
:205FB000F88FC046EC0100103C1100506E62084024220840602800209C13005008200940EC
:205FD0003500094000E7A48030100940FDFDA400AC3F00502DE9F84F0024774D774EDFF8E5
:205FF000E0B1DFF8E0A1DFF8E081DFF8E091D9F800104A7A01231820A34060431A420AEB50
:20601000000709D0087A38F810203A8000201BF80420BA73F87302E040F601003880002014
:20603000788007F118007860387B00F0EF0040F080003873097A01290ED141F28830B860F4
:20605000387B00F0F00040F005003873787B00F0F00040F0020019E0002C0CBF0221002184
:2060700000F0F000084338733CB90EF0E5FD00F5C870CAF80800022004E00020022CB86002
:20609000F9D10120797B01F0F00108437873641C3E61022C7D61AADDD9F80000017A0129D1
:2060B0000EBFCAF834A00020CAF834000CF00AFF3060474880690078C1074CBF10210021AD
:2060D00082074CBF2022002243074CBF4023002300074CBF8020002011431943014341F0E6
:2060F0000F01317100207071D9F80010887A00F003007071CA7A920002F004021043707124
:206110008A7ED20002F0080242F0100210437071087A012818BF042806D10020B071F071FA
:20613000B06001F1140216E0487FB07101F15D025078F071487F20B10B7FC3EB4313C818D9
:206150001E30B060507828B11278C2EB42128B1803F15F001F4AF060726101F10C00306194
:206170001D4BF07E727900F0E00040F08600F0761A48F061187828B1307900F0FE0042F07D
:2061900040023071164B987843064CBF42F0200202F0DF02727100202880A870E87028716C
:2061B0006871E8802881A872E872E8600868C0F804A0BDE8F18F00BFB44D0020F44B0020F9
:2061D000409A0110204A0020109A0110104F0020785C0100D0470020784E002000204E00A0
:2061F000082800207E488078FF2800D170472DE9F84F0DF063FF054605F21710017801290A
:2062100008BF417800F0A28005F17400817B022903D105F174020020907305F59276F1896C
:2062300011B1307B05F054FB68896E4F288105F58D78B87AFB793A7BF97A7C7BB8F800C012
:2062500000EB030E96448E4474441FFA84FEB8F80440641CA8F80440F444B8F80240A8F811
:2062700000C00419A8F802404FF01C0C3468FCB1DFF8749195F806A0D9F8009009F10E0B1C
:206290000CFB0AFA09F10E091BF80AA034F81AB0F34424F81AB095F806A00CFB0AFA19F8B3
:2062B0000A9004EB4904B4F84AE08644A4F84AE0002B08BF002904D1002A04BF797B002998
:2062D00023D02A89E889821800202874AA81287F012804BF698CE983787868B10121297757
:2062F00005F174018878002804BF887B002803D1087F08B9698CE983307D80B3022804BFC3
:20631000F87A002827D1002128E0E98338B100202874287F012807D1698CE98304E0B8F804
:206330000600401CA8F80600A8892989814206D08842D1D2081A41F2AB029042CCDA287C3E
:2063500008B1052901D0082100E03E212846BDE8F44F0DF068B9787A08B1022131752348BA
:20637000FA7B01682868D30708D53A69C26001F11400A97949010022425011E001F1140204
:20639000A97949015258184932610A68A97902F108030CFB01F29958C1600020E88328771B
:2063B000134841690A7890074CBFB87B812085F874002846FCF7D2FC01280ED00121284619
:2063D00008F032F828460CF0C7FFFCF73DFF012803D0BDE8F14FFDF709BEBDE8F18F00BFAC
:2063F000684E00205C4D00207028002074280020785C01002DE9F0410C4684B00746207AF1
:206410000026C10690461D460BD540460EF0C0FB030000F0F0800A222146384698470600CE
:2064300050D1207802281AD160680178427801EB022189B24FF42050091A012910D9891EA9
:2064500041D0491E16D0FD3905D0491E00F08B80491E74D0491E7BD0491E00F0A180B8E0F4
:206470000B98002831D1E0680A9A017811800278416891E00B98002827D10A9801210180AD
:20649000E0680178297000216089401C80B20EF07BFB0A99098868B102780A9B921C511803
:2064B0001980418969704189090AA97002784168E81C72E00A98091D018004220021681C0D
:2064D0000EF0C9F898E00B9800286BD1E06807880A98042101802F70380A68700DF1020195
:2064F00038460EF051FB04001FD0E768BDF802204FF6FF786B4641460EF05EFB40B92378CC
:2065100062683F4802210EF03BFB08B9ADF80080387802280BD179680222281D0DF0B8FC2C
:206530000A980188891C018001E0ADF80070BDF80000A870BDF80000000AE8705CE00B9841
:2065500000282FD1E068016838460DF04FFE03E00B9838BBE06800880A9A02211180287051
:20657000000A687048E0E0680EF077F80B9B80B29842B8BF07263FDB834208BF002006D05A
:206590000C99C9188142B2BF0C98C01A80B20A9908800246E068C11828460DF079FC2BE002
:2065B0000B9808B10B2627E00A9AE0680721118002782A70417869704188A9704188090A2E
:2065D000E97001792971C1886971C088000AA87112E040460EF0D0FA06000CD00D980C9944
:2065F0000A9B029001912A460B98009021463846B047064600E00E26304604B0BDE8F081A3
:206610000C5901002DE9FE4F7D4C617811B900200DF002FB0EF010FB8146002709F6C41948
:206630000026784DDFF8E0810EE030460DF046FD417939B129688279CA5549467F1C00F01A
:20665000E7F8FFB2761CF6B298F800008642ECDB009761788F4205D000200DF0DDFA822095
:206670000EF036FB6078012840F0A380002601E0761CF6B298F80000864280F294803046F2
:206690000DF01CFD074678790028F1D02868B979027891421CBF00200DF0BEFAB87980E05D
:2066B000286810F809000DF009FD00684268DAF808109068814204BFB84609F1010900F0BA
:2066D00088808BE0296891F800B04FF0010910E0626811F8093002F5B17208FB03F708FB0E
:2066F0000BFED75B32F80E20974238BF9B4609F10109C0B28145EBDB4FF6FF7008F036FA68
:20671000074658460DF0DAFC40F6C4190068416800967808029109FB00FA0026019715E02D
:2067300058460DF0CBFC01680A78802A04BF7B69C3F814A00978402907D1344A8079136888
:2067500003EB40110AF5A062CA61761C0098864253DA2868805D8345F7D0636808FB00F2E3
:20677000991803F5B173C9899A5A4B08934203D2009B891A8B42E8DA0DF0A0FC006847687C
:20679000029A0198B968936800EBD0704010A1F6C41109FB00300EF04BFA0028C0D02868F2
